{
  "contractName": "BN254",
  "abi": [
    {
      "inputs": [],
      "name": "P_MOD",
      "outputs": [
        {
          "internalType": "uint256",
          "name": "",
          "type": "uint256"
        }
      ],
      "stateMutability": "view",
      "type": "function"
    },
    {
      "inputs": [],
      "name": "R_MOD",
      "outputs": [
        {
          "internalType": "uint256",
          "name": "",
          "type": "uint256"
        }
      ],
      "stateMutability": "view",
      "type": "function"
    }
  ],
  "bytecode": "0x61011f61004e600b8282823980515f1a607314610042577f4e487b71000000000000000000000000000000000000000000000000000000005f525f60045260245ffd5b305f52607381538281f3fe7300000000000000000000000000000000000000003014608060405260043610603c575f3560e01c80631d712e27146040578063df6e6cb414605a575b5f80fd5b60466074565b6040516051919060d2565b60405180910390f35b60606098565b604051606b919060d2565b60405180910390f35b7f30644e72e131a029b85045b68181585d97816a916871ca8d3c208c16d87cfd4781565b7f30644e72e131a029b85045b68181585d2833e84879b9709143e1f593f000000181565b5f819050919050565b60cc8160bc565b82525050565b5f60208201905060e35f83018460c5565b9291505056fea264697066735822122058b3bd8e14ee9ec1a05efafec91fcadba8b9456648e866f66972f13fb06edfff64736f6c63430008150033",
  "immutableReferences": {},
  "source": "// SPDX-License-Identifier: GPL-3.0-or-later\n//\n// Copyright (c) 2022 Espresso Systems (espressosys.com)\n// This file is part of the Configurable Asset Privacy for Ethereum (CAPE) library.\n//\n// This program is free software: you can redistribute it and/or modify it under the terms of the GNU General Public License as published by the Free Software Foundation, either version 3 of the License, or (at your option) any later version.\n// This program is distributed in the hope that it will be useful, but WITHOUT ANY WARRANTY; without even the implied warranty of MERCHANTABILITY or FITNESS FOR A PARTICULAR PURPOSE. See the GNU General Public License for more details.\n// You should have received a copy of the GNU General Public License along with this program. If not, see <https://www.gnu.org/licenses/>.\n\n//\n// Based on:\n// - Christian Reitwiessner: https://gist.githubusercontent.com/chriseth/f9be9d9391efc5beb9704255a8e2989d/raw/4d0fb90847df1d4e04d507019031888df8372239/snarktest.solidity\n// - Aztec: https://github.com/AztecProtocol/aztec-2-bug-bounty\n\npragma solidity ^0.8.0;\n\nimport \"../UtilsExternal.sol\";\nimport \"./Fields.sol\";\n\n/// @notice Barreto-Naehrig curve over a 254 bit prime field\nlibrary BN254 {\n    // use notation from https://datatracker.ietf.org/doc/draft-irtf-cfrg-pairing-friendly-curves/\n    //\n    // Elliptic curve is defined over a prime field GF(p), with embedding degree k.\n    // Short Weierstrass (SW form) is, for a, b \\in GF(p^n) for some natural number n > 0:\n    //   E: y^2 = x^3 + a * x + b\n    //\n    // Pairing is defined over cyclic subgroups G1, G2, both of which are of order r.\n    // G1 is a subgroup of E(GF(p)), G2 is a subgroup of E(GF(p^k)).\n    //\n    // BN family are parameterized curves with well-chosen t,\n    //   p = 36 * t^4 + 36 * t^3 + 24 * t^2 + 6 * t + 1\n    //   r = 36 * t^4 + 36 * t^3 + 18 * t^2 + 6 * t + 1\n    // for some integer t.\n    // E has the equation:\n    //   E: y^2 = x^3 + b\n    // where b is a primitive element of multiplicative group (GF(p))^* of order (p-1).\n    // A pairing e is defined by taking G1 as a subgroup of E(GF(p)) of order r,\n    // G2 as a subgroup of E'(GF(p^2)),\n    // and G_T as a subgroup of a multiplicative group (GF(p^12))^* of order r.\n    //\n    // BN254 is defined over a 254-bit prime order p, embedding degree k = 12.\n    uint256 public constant P_MOD = 21888242871839275222246405745257275088696311157297823662689037894645226208583;\n    uint256 public constant R_MOD = 21888242871839275222246405745257275088548364400416034343698204186575808495617;\n\n    using {add, scalarMul, scale_scalar} for G1Point;\n\n    struct G1Point {\n        uint256 x;\n        uint256 y;\n    }\n\n    // G2 group element where x \\in Fp2 = x0 * z + x1\n    struct G2Point {\n        uint256 x0;\n        uint256 x1;\n        uint256 y0;\n        uint256 y1;\n    }\n\n    /// @return the generator of G1\n    // solhint-disable-next-line func-name-mixedcase\n    function P1() internal pure returns (G1Point memory) {\n        return G1Point(1, 2);\n    }\n\n    /// @return the generator of G2\n    // solhint-disable-next-line func-name-mixedcase\n    function P2() internal pure returns (G2Point memory) {\n        return G2Point({\n            x0: 0x198e9393920d483a7260bfb731fb5d25f1aa493335a9e71297e485b7aef312c2,\n            x1: 0x1800deef121f1e76426a00665e5c4479674322d4f75edadd46debd5cd992f6ed,\n            y0: 0x090689d0585ff075ec9e99ad690c3395bc4b313370b38ef355acdadcd122975b,\n            y1: 0x12c85ea5db8c6deb4aab71808dcb408fe3d1e7690c43d37b4ce6cc0166fa7daa\n        });\n    }\n\n    /// @return the point at infinity of G1\n    function point_at_inf() internal pure returns (G1Point memory) {\n        return G1Point(0, 0);\n    }\n\n    /// @return the point at infinity of G2\n    function point_at_inf_g2() internal pure returns (G2Point memory) {\n        return G2Point(0, 0, 0, 0);\n    }\n\n    function endo_coeffs_g1() internal pure returns (Base.FE endo_q, Scalar.FE endo_r) {\n        // INFO: values taken from Kimchi\\'s Rust implementation.\n        return (\n            Base.from(0x30644E72E131A0295E6DD9E7E0ACCCB0C28F069FBB966E3DE4BD44E5607CFD48),\n            Scalar.from(0x30644E72E131A029048B6E193FD84104CC37A73FEC2BC5E9B8CA0B2D36636F23)\n        );\n    }\n\n    /// @dev check if a G1 point is Infinity\n    /// @notice precompile bn256Add at address(6) takes (0, 0) as Point of Infinity,\n    /// some crypto libraries (such as arkwork) uses a boolean flag to mark PoI, and\n    /// just use (0, 1) as affine coordinates (not on curve) to represents PoI.\n    function isInfinity(G1Point memory point) internal pure returns (bool result) {\n        assembly (\"memory-safe\") {\n            let x := mload(point)\n            let y := mload(add(point, 0x20))\n            result := and(iszero(x), iszero(y))\n        }\n    }\n\n    /// @return r the negation of p, i.e. p.add(p.neg()) should be zero.\n    function neg(G1Point memory p) internal pure returns (G1Point memory) {\n        if (isInfinity(p)) {\n            return p;\n        }\n        return G1Point(p.x, P_MOD - (p.y % P_MOD));\n    }\n\n    /// @return r the sum of two points of G1\n    function add(G1Point memory p1, G1Point memory p2) internal view returns (G1Point memory r) {\n        uint256[4] memory input;\n        input[0] = p1.x;\n        input[1] = p1.y;\n        input[2] = p2.x;\n        input[3] = p2.y;\n        bool success;\n        assembly (\"memory-safe\") {\n            success := staticcall(sub(gas(), 2000), 6, input, 0xc0, r, 0x60)\n            // Use \"invalid\" to make gas estimation work\n            switch success\n            case 0 { revert(0, 0) }\n        }\n        require(success, \"Bn254: group addition failed!\");\n    }\n\n    /// @return r the substraction of two points of G1\n    function sub(G1Point memory p1, G1Point memory p2) internal view returns (G1Point memory) {\n        return add(p1, neg(p2));\n    }\n\n    /// @return r the product of a point on G1 and a scalar, i.e.\n    /// p == p.mul(1) and p.add(p) == p.mul(2) for all points p.\n    function scalarMul(G1Point memory p, uint256 s) internal view returns (G1Point memory r) {\n        uint256[3] memory input;\n        input[0] = p.x;\n        input[1] = p.y;\n        input[2] = s;\n        bool success;\n        assembly (\"memory-safe\") {\n            success := staticcall(sub(gas(), 2000), 7, input, 0x80, r, 0x60)\n            // Use \"invalid\" to make gas estimation work\n            switch success\n            case 0 { revert(0, 0) }\n        }\n        require(success, \"Bn254: scalar mul failed!\");\n    }\n\n    function scale_scalar(G1Point memory p, Scalar.FE s) internal view returns (G1Point memory) {\n        return scalarMul(p, Scalar.FE.unwrap(s));\n    }\n\n    /// @dev Multi-scalar Mulitiplication (MSM)\n    /// @return r = \\Prod{B_i^s_i} where {s_i} are `scalars` and {B_i} are `bases`\n    function multiScalarMul(G1Point[] memory bases, uint256[] memory scalars)\n        internal\n        view\n        returns (G1Point memory r)\n    {\n        require(scalars.length == bases.length, \"MSM error: length does not match\");\n\n        r = scalarMul(bases[0], scalars[0]);\n        for (uint256 i = 1; i < scalars.length; i++) {\n            r = add(r, scalarMul(bases[i], scalars[i]));\n        }\n    }\n\n    /// @dev Compute f^-1 for f \\in Fr scalar field\n    /// @notice credit: Aztec, Spilsbury Holdings Ltd\n    function invert(uint256 fr) internal view returns (uint256 output) {\n        bool success;\n        uint256 p = R_MOD;\n        assembly (\"memory-safe\") {\n            let mPtr := mload(0x40)\n            mstore(mPtr, 0x20)\n            mstore(add(mPtr, 0x20), 0x20)\n            mstore(add(mPtr, 0x40), 0x20)\n            mstore(add(mPtr, 0x60), fr)\n            mstore(add(mPtr, 0x80), sub(p, 2))\n            mstore(add(mPtr, 0xa0), p)\n            success := staticcall(gas(), 0x05, mPtr, 0xc0, 0x00, 0x20)\n            output := mload(0x00)\n        }\n        require(success, \"Bn254: pow precompile failed!\");\n    }\n\n    /**\n     * validate the following:\n     *   x != 0\n     *   y != 0\n     *   x < p\n     *   y < p\n     *   y^2 = x^3 + 3 mod p\n     */\n    /// @dev validate G1 point and check if it is on curve\n    /// @notice credit: Aztec, Spilsbury Holdings Ltd\n    function validateG1Point(G1Point memory point) internal pure {\n        bool isWellFormed;\n        uint256 p = P_MOD;\n        assembly (\"memory-safe\") {\n            let x := mload(point)\n            let y := mload(add(point, 0x20))\n\n            isWellFormed :=\n                and(\n                    and(and(lt(x, p), lt(y, p)), not(or(iszero(x), iszero(y)))),\n                    eq(mulmod(y, y, p), addmod(mulmod(x, mulmod(x, x, p), p), 3, p))\n                )\n        }\n        require(isWellFormed, \"Bn254: invalid G1 point\");\n    }\n\n    /// @dev Validate scalar field, revert if invalid (namely if fr > r_mod).\n    /// @notice Writing this inline instead of calling it might save gas.\n    function validateScalarField(uint256 fr) internal pure {\n        bool isValid;\n        assembly (\"memory-safe\") {\n            isValid := lt(fr, R_MOD)\n        }\n        require(isValid, \"Bn254: invalid scalar field\");\n    }\n\n    /// @dev Evaluate the following pairing product:\n    /// @dev e(a1, a2).e(-b1, b2) == 1\n    /// @dev caller needs to ensure that a1, a2, b1 and b2 are within proper group\n    /// @notice credit: Aztec, Spilsbury Holdings Ltd\n    function pairingProd2(G1Point memory a1, G2Point memory a2, G1Point memory b1, G2Point memory b2)\n        internal\n        view\n        returns (bool)\n    {\n        uint256 out;\n        bool success;\n        assembly (\"memory-safe\") {\n            let mPtr := mload(0x40)\n            mstore(mPtr, mload(a1))\n            mstore(add(mPtr, 0x20), mload(add(a1, 0x20)))\n            mstore(add(mPtr, 0x40), mload(a2))\n            mstore(add(mPtr, 0x60), mload(add(a2, 0x20)))\n            mstore(add(mPtr, 0x80), mload(add(a2, 0x40)))\n            mstore(add(mPtr, 0xa0), mload(add(a2, 0x60)))\n\n            mstore(add(mPtr, 0xc0), mload(b1))\n            mstore(add(mPtr, 0xe0), mload(add(b1, 0x20)))\n            mstore(add(mPtr, 0x100), mload(b2))\n            mstore(add(mPtr, 0x120), mload(add(b2, 0x20)))\n            mstore(add(mPtr, 0x140), mload(add(b2, 0x40)))\n            mstore(add(mPtr, 0x160), mload(add(b2, 0x60)))\n            success := staticcall(gas(), 8, mPtr, 0x180, 0x00, 0x20)\n            out := mload(0x00)\n        }\n        require(success, \"Bn254: Pairing check failed!\");\n        return (out != 0);\n    }\n\n    function fromLeBytesModOrder(bytes memory leBytes) internal pure returns (uint256 ret) {\n        for (uint256 i = 0; i < leBytes.length; i++) {\n            ret = mulmod(ret, 256, R_MOD);\n            ret = addmod(ret, uint256(uint8(leBytes[leBytes.length - 1 - i])), R_MOD);\n        }\n    }\n\n    /// @dev Check if y-coordinate of G1 point is negative.\n    function isYNegative(G1Point memory point) internal pure returns (bool) {\n        return (point.y << 1) < P_MOD;\n    }\n\n    // @dev Perform a modular exponentiation.\n    // @return base^exponent (mod modulus)\n    // This method is ideal for small exponents (~64 bits or less), as it is cheaper than using the pow precompile\n    // @notice credit: credit: Aztec, Spilsbury Holdings Ltd\n    function powSmall(uint256 base, uint256 exponent, uint256 modulus) internal pure returns (uint256) {\n        uint256 result = 1;\n        uint256 input = base;\n        uint256 count = 1;\n\n        assembly (\"memory-safe\") {\n            let endpoint := add(exponent, 0x01)\n            for {} lt(count, endpoint) { count := add(count, count) } {\n                if and(exponent, count) { result := mulmod(result, input, modulus) }\n                input := mulmod(input, input, modulus)\n            }\n        }\n\n        return result;\n    }\n\n    function g1Serialize(G1Point memory point) internal pure returns (bytes memory) {\n        uint256 mask = 0;\n\n        // Set the 254-th bit to 1 for infinity\n        // https://docs.rs/ark-serialize/0.3.0/src/ark_serialize/flags.rs.html#117\n        if (isInfinity(point)) {\n            mask |= 0x4000000000000000000000000000000000000000000000000000000000000000;\n        }\n\n        // Set the 255-th bit to 1 for positive Y\n        // https://docs.rs/ark-serialize/0.3.0/src/ark_serialize/flags.rs.html#118\n        if (!isYNegative(point)) {\n            mask = 0x8000000000000000000000000000000000000000000000000000000000000000;\n        }\n\n        return abi.encodePacked(UtilsExternal.reverseEndianness(point.x | mask));\n    }\n\n    function g1Deserialize(bytes32 input) internal view returns (G1Point memory point) {\n        uint256 mask = 0x4000000000000000000000000000000000000000000000000000000000000000;\n        uint256 x = UtilsExternal.reverseEndianness(uint256(input));\n        uint256 y;\n        bool isQuadraticResidue;\n        bool isYPositive;\n        if (x & mask != 0) {\n            // the 254-th bit == 1 for infinity\n            x = 0;\n            y = 0;\n        } else {\n            // Set the 255-th bit to 1 for positive Y\n            mask = 0x8000000000000000000000000000000000000000000000000000000000000000;\n            isYPositive = (x & mask != 0);\n            // mask off the first two bits of x\n            mask = 0x3FFFFFFFFFFFFFFFFFFFFFFFFFFFFFFFFFFFFFFFFFFFFFFFFFFFFFFFFFFFFFFF;\n            x &= mask;\n\n            // solve for y where E: y^2 = x^3 + 3\n            y = mulmod(x, x, P_MOD);\n            y = mulmod(y, x, P_MOD);\n            y = addmod(y, 3, P_MOD);\n            (isQuadraticResidue, y) = quadraticResidue(y);\n\n            require(isQuadraticResidue, \"deser fail: not on curve\");\n\n            if (isYPositive) {\n                y = P_MOD - y;\n            }\n        }\n\n        point = G1Point(x, y);\n    }\n\n    function quadraticResidue(uint256 x) internal view returns (bool isQuadraticResidue, uint256 a) {\n        bool success;\n        // e = (p+1)/4\n        uint256 e = 0xc19139cb84c680a6e14116da060561765e05aa45a1c72a34f082305b61f3f52;\n        uint256 p = P_MOD;\n\n        // we have p == 3 mod 4 therefore\n        // a = x^((p+1)/4)\n        assembly (\"memory-safe\") {\n            // credit: Aztec\n            let mPtr := mload(0x40)\n            mstore(mPtr, 0x20)\n            mstore(add(mPtr, 0x20), 0x20)\n            mstore(add(mPtr, 0x40), 0x20)\n            mstore(add(mPtr, 0x60), x)\n            mstore(add(mPtr, 0x80), e)\n            mstore(add(mPtr, 0xa0), p)\n            success := staticcall(gas(), 0x05, mPtr, 0xc0, 0x00, 0x20)\n            a := mload(0x00)\n        }\n        require(success, \"pow precompile call failed!\");\n\n        // ensure a < p/2\n        if (a << 1 > p) {\n            a = p - a;\n        }\n\n        // check if a^2 = x, if not x is not a quadratic residue\n        e = mulmod(a, a, p);\n\n        isQuadraticResidue = (e == x);\n    }\n}",
  "sourcePath": "/Users/yuvalmedina/git_dirs/nexus-zkvm/spartan/src/bn254/BN254.sol",
  "compiler": {
    "name": "solc",
    "version": "0.8.21+commit.d9974bed.Emscripten.clang"
  },
  "schemaVersion": "3.4.16",
  "updatedAt": "2024-05-14T17:29:38.950Z",
  "devdoc": {
    "kind": "dev",
    "methods": {},
    "version": 1
  },
  "userdoc": {
    "kind": "user",
    "methods": {},
    "notice": "Barreto-Naehrig curve over a 254 bit prime field",
    "version": 1
  }
}