{
  "contractName": "BulletproofsContract",
  "abi": [
    {
      "anonymous": false,
      "inputs": [
        {
          "indexed": false,
          "internalType": "uint256",
          "name": "G_hat_x",
          "type": "uint256"
        },
        {
          "indexed": false,
          "internalType": "uint256",
          "name": "G_hat_y",
          "type": "uint256"
        },
        {
          "indexed": false,
          "internalType": "uint256",
          "name": "Gamma_hat_x",
          "type": "uint256"
        },
        {
          "indexed": false,
          "internalType": "uint256",
          "name": "Gamma_hat_y",
          "type": "uint256"
        },
        {
          "indexed": false,
          "internalType": "uint256",
          "name": "a_hat",
          "type": "uint256"
        }
      ],
      "name": "ProofVerified",
      "type": "event"
    },
    {
      "inputs": [
        {
          "internalType": "uint256[][]",
          "name": "L_vec_in",
          "type": "uint256[][]"
        },
        {
          "internalType": "uint256[][]",
          "name": "R_vec_in",
          "type": "uint256[][]"
        },
        {
          "internalType": "uint256[][]",
          "name": "G_vec_in",
          "type": "uint256[][]"
        },
        {
          "internalType": "uint256[]",
          "name": "a_vec_in",
          "type": "uint256[]"
        },
        {
          "internalType": "uint256[]",
          "name": "gamma_in",
          "type": "uint256[]"
        }
      ],
      "name": "verifyProof",
      "outputs": [
        {
          "internalType": "bool",
          "name": "",
          "type": "bool"
        }
      ],
      "stateMutability": "nonpayable",
      "type": "function"
    }
  ],
  "bytecode": "0x608060405234801561000f575f80fd5b50610ca48061001d5f395ff3fe608060405234801561000f575f80fd5b5060043610610029575f3560e01c806332d2a8f81461002d575b5f80fd5b6100476004803603810190610042919061073f565b61005d565b604051610054919061085c565b60405180910390f35b5f80835190505f875167ffffffffffffffff81111561007f5761007e6104f2565b5b6040519080825280602002602001820160405280156100b857816020015b6100a56104b5565b81526020019060019003908161009d5790505b5090505f875167ffffffffffffffff8111156100d7576100d66104f2565b5b60405190808252806020026020018201604052801561011057816020015b6100fd6104b5565b8152602001906001900390816100f55790505b5090505f5b89518110156102695760405180604001604052808b838151811061013c5761013b610875565b5b60200260200101515f8151811061015657610155610875565b5b602002602001015181526020018b838151811061017657610175610875565b5b602002602001015160018151811061019157610190610875565b5b60200260200101518152508382815181106101af576101ae610875565b5b602002602001018190525060405180604001604052808a83815181106101d8576101d7610875565b5b60200260200101515f815181106101f2576101f1610875565b5b602002602001015181526020018a838151811061021257610211610875565b5b602002602001015160018151811061022d5761022c610875565b5b602002602001015181525082828151811061024b5761024a610875565b5b60200260200101819052508080610261906108cf565b915050610115565b505f875167ffffffffffffffff811115610286576102856104f2565b5b6040519080825280602002602001820160405280156102bf57816020015b6102ac6104b5565b8152602001906001900390816102a45790505b5090505f5b885181101561037c5760405180604001604052808a83815181106102eb576102ea610875565b5b60200260200101515f8151811061030557610304610875565b5b602002602001015181526020018a838151811061032557610324610875565b5b60200260200101516001815181106103405761033f610875565b5b602002602001015181525082828151811061035e5761035d610875565b5b60200260200101819052508080610374906108cf565b9150506102c4565b505f6040518060400160405280885f8151811061039c5761039b610875565b5b60200260200101518152602001886001815181106103bd576103bc610875565b5b602002602001015181525090505f805f73__BulletproofsVerifier__________________63cc0afa1a898d8a8a8a8a6040518763ffffffff1660e01b815260040161040e96959493929190610ade565b60a060405180830381865af4158015610429573d5f803e3d5ffd5b505050506040513d601f19601f8201168201806040525081019061044d9190610bbe565b9250925092507f48950129900df26c2140187532df49c8af343c3daf74f1e99e562e1b2be07adc835f01518460200151845f0151856020015185604051610498959493929190610c1d565b60405180910390a160019850505050505050505095945050505050565b60405180604001604052805f81526020015f81525090565b5f604051905090565b5f80fd5b5f80fd5b5f80fd5b5f601f19601f8301169050919050565b7f4e487b71000000000000000000000000000000000000000000000000000000005f52604160045260245ffd5b610528826104e2565b810181811067ffffffffffffffff82111715610547576105466104f2565b5b80604052505050565b5f6105596104cd565b9050610565828261051f565b919050565b5f67ffffffffffffffff821115610584576105836104f2565b5b602082029050602081019050919050565b5f80fd5b5f67ffffffffffffffff8211156105b3576105b26104f2565b5b602082029050602081019050919050565b5f819050919050565b6105d6816105c4565b81146105e0575f80fd5b50565b5f813590506105f1816105cd565b92915050565b5f61060961060484610599565b610550565b9050808382526020820190506020840283018581111561062c5761062b610595565b5b835b81811015610655578061064188826105e3565b84526020840193505060208101905061062e565b5050509392505050565b5f82601f830112610673576106726104de565b5b81356106838482602086016105f7565b91505092915050565b5f61069e6106998461056a565b610550565b905080838252602082019050602084028301858111156106c1576106c0610595565b5b835b8181101561070857803567ffffffffffffffff8111156106e6576106e56104de565b5b8086016106f3898261065f565b855260208501945050506020810190506106c3565b5050509392505050565b5f82601f830112610726576107256104de565b5b813561073684826020860161068c565b91505092915050565b5f805f805f60a08688031215610758576107576104d6565b5b5f86013567ffffffffffffffff811115610775576107746104da565b5b61078188828901610712565b955050602086013567ffffffffffffffff8111156107a2576107a16104da565b5b6107ae88828901610712565b945050604086013567ffffffffffffffff8111156107cf576107ce6104da565b5b6107db88828901610712565b935050606086013567ffffffffffffffff8111156107fc576107fb6104da565b5b6108088882890161065f565b925050608086013567ffffffffffffffff811115610829576108286104da565b5b6108358882890161065f565b9150509295509295909350565b5f8115159050919050565b61085681610842565b82525050565b5f60208201905061086f5f83018461084d565b92915050565b7f4e487b71000000000000000000000000000000000000000000000000000000005f52603260045260245ffd5b7f4e487b71000000000000000000000000000000000000000000000000000000005f52601160045260245ffd5b5f6108d9826105c4565b91507fffffffffffffffffffffffffffffffffffffffffffffffffffffffffffffffff820361090b5761090a6108a2565b5b600182019050919050565b61091f816105c4565b82525050565b5f81519050919050565b5f82825260208201905092915050565b5f819050602082019050919050565b610957816105c4565b82525050565b5f610968838361094e565b60208301905092915050565b5f602082019050919050565b5f61098a82610925565b610994818561092f565b935061099f8361093f565b805f5b838110156109cf5781516109b6888261095d565b97506109c183610974565b9250506001810190506109a2565b5085935050505092915050565b5f81519050919050565b5f82825260208201905092915050565b5f819050602082019050919050565b604082015f820151610a195f85018261094e565b506020820151610a2c602085018261094e565b50505050565b5f610a3d8383610a05565b60408301905092915050565b5f602082019050919050565b5f610a5f826109dc565b610a6981856109e6565b9350610a74836109f6565b805f5b83811015610aa4578151610a8b8882610a32565b9750610a9683610a49565b925050600181019050610a77565b5085935050505092915050565b604082015f820151610ac55f85018261094e565b506020820151610ad8602085018261094e565b50505050565b5f60e082019050610af15f830189610916565b8181036020830152610b038188610980565b90508181036040830152610b178187610a55565b90508181036060830152610b2b8186610a55565b90508181036080830152610b3f8185610a55565b9050610b4e60a0830184610ab1565b979650505050505050565b5f80fd5b5f81519050610b6b816105cd565b92915050565b5f60408284031215610b8657610b85610b59565b5b610b906040610550565b90505f610b9f84828501610b5d565b5f830152506020610bb284828501610b5d565b60208301525092915050565b5f805f60a08486031215610bd557610bd46104d6565b5b5f610be286828701610b71565b9350506040610bf386828701610b71565b9250506080610c0486828701610b5d565b9150509250925092565b610c17816105c4565b82525050565b5f60a082019050610c305f830188610c0e565b610c3d6020830187610c0e565b610c4a6040830186610c0e565b610c576060830185610c0e565b610c646080830184610c0e565b969550505050505056fea2646970667358221220a105dc8ce4db6de22d8d73f8c28534fa485b10abadbb7ee91175629575282e4864736f6c63430008150033",
  "immutableReferences": {},
  "source": "// SPDX-License-Identifier: GPL-3.0\npragma solidity >=0.4.16 <0.9.0;\n\nimport \"../src/bn254/BN254.sol\";\nimport \"../src/bn254/BN256G2.sol\";\nimport \"../src/bn254/Fields.sol\";\nimport \"../src/Utils.sol\";\nimport \"../src/nizk/BulletproofsVerifier.sol\";\n\ncontract BulletproofsContract {\n\n    event ProofVerified(uint256 G_hat_x, uint256 G_hat_y, uint256 Gamma_hat_x, uint256 Gamma_hat_y, uint256 a_hat);\n\n    function verifyProof(uint256[][] memory L_vec_in, uint256[][] memory R_vec_in, uint256[][] memory G_vec_in, uint256[] memory a_vec_in, uint256[] memory gamma_in) public returns (bool) {\n        uint256 n = a_vec_in.length;\n        BN254.G1Point[] memory L_vec = new BN254.G1Point[](L_vec_in.length);\n        BN254.G1Point[] memory R_vec = new BN254.G1Point[](R_vec_in.length);\n        for(uint i = 0; i < L_vec_in.length; i++){\n            L_vec[i] = BN254.G1Point(L_vec_in[i][0], L_vec_in[i][1]);\n            R_vec[i] = BN254.G1Point(R_vec_in[i][0], R_vec_in[i][1]);\n        }\n        BN254.G1Point[] memory G_vec = new BN254.G1Point[](G_vec_in.length);\n        for(uint i = 0; i < G_vec_in.length; i++){\n            G_vec[i] = BN254.G1Point(G_vec_in[i][0], G_vec_in[i][1]);\n        }\n        BN254.G1Point memory Gamma = BN254.G1Point(gamma_in[0], gamma_in[1]);\n        (BN254.G1Point memory G_hat, BN254.G1Point memory Gamma_hat, uint256 a_hat) = BulletproofsVerifier.verify(n, a_vec_in, L_vec, R_vec, G_vec, Gamma);\n        emit ProofVerified(G_hat.x, G_hat.y, Gamma_hat.x, Gamma_hat.y, a_hat);\n        return true;\n    }\n}",
  "sourcePath": "/Users/yuvalmedina/git_dirs/nexus-zkvm/spartan/contracts/BulletproofsContract.sol",
  "compiler": {
    "name": "solc",
    "version": "0.8.21+commit.d9974bed.Emscripten.clang"
  },
  "schemaVersion": "3.4.16",
  "updatedAt": "2024-05-14T19:26:29.785Z",
  "devdoc": {
    "kind": "dev",
    "methods": {},
    "version": 1
  },
  "userdoc": {
    "kind": "user",
    "methods": {},
    "version": 1
  }
}