{
  "contractName": "BulletproofsContract",
  "abi": [
    {
      "anonymous": false,
      "inputs": [
        {
          "indexed": false,
          "internalType": "uint256",
          "name": "G_hat_x",
          "type": "uint256"
        },
        {
          "indexed": false,
          "internalType": "uint256",
          "name": "G_hat_y",
          "type": "uint256"
        },
        {
          "indexed": false,
          "internalType": "uint256",
          "name": "Gamma_hat_x",
          "type": "uint256"
        },
        {
          "indexed": false,
          "internalType": "uint256",
          "name": "Gamma_hat_y",
          "type": "uint256"
        },
        {
          "indexed": false,
          "internalType": "uint256",
          "name": "a_hat",
          "type": "uint256"
        }
      ],
      "name": "ProofVerified",
      "type": "event"
    },
    {
      "inputs": [],
      "name": "verifyProof",
      "outputs": [
        {
          "internalType": "bool",
          "name": "",
          "type": "bool"
        }
      ],
      "stateMutability": "nonpayable",
      "type": "function"
    }
  ],
  "bytecode": "0x608060405234801561000f575f80fd5b506109328061001d5f395ff3fe608060405234801561000f575f80fd5b5060043610610029575f3560e01c8063963d26371461002d575b5f80fd5b61003561004b565b60405161004291906104aa565b60405180910390f35b5f80600290505f600267ffffffffffffffff81111561006d5761006c6104c3565b5b60405190808252806020026020018201604052801561009b5781602001602082028036833780820191505090505b5090507f22159b8d330761571bfa80a2f0ea1bd1bb326720d41eddf4aae597e1d322f076815f815181106100d2576100d16104f0565b5b6020026020010181815250507f22159b8d330761571bfa80a2f0ea1bd1bb326720d41eddf4aae597e1d322f07681600181518110610113576101126104f0565b5b6020026020010181815250505f600167ffffffffffffffff81111561013b5761013a6104c3565b5b60405190808252806020026020018201604052801561017457816020015b610161610478565b8152602001906001900390816101595790505b50905060405180604001604052807f22bb1614e34a17bbf6929d333f20127e3c3d7591d9031622f4316a9c25eccfeb81526020017f14bc17cb3fb1fa5ad34a3e33d1e3c1639bc8f94cd631e08e69fecd8dae59db0c815250815f815181106101df576101de6104f0565b5b60200260200101819052505f600167ffffffffffffffff811115610206576102056104c3565b5b60405190808252806020026020018201604052801561023f57816020015b61022c610478565b8152602001906001900390816102245790505b50905060405180604001604052807f118b9514350537225093252b139efdabc85e1d8fdf244c654300d9ad7428645781526020017f0ec346af484d9c753c45f2ee73c1d9db3426914f26664474ef3a432f1ada5ee0815250815f815181106102aa576102a96104f0565b5b60200260200101819052505f600267ffffffffffffffff8111156102d1576102d06104c3565b5b60405190808252806020026020018201604052801561030a57816020015b6102f7610478565b8152602001906001900390816102ef5790505b5090506040518060400160405280600181526020016002815250815f81518110610337576103366104f0565b5b602002602001018190525060405180604001604052806001815260200160028152508160018151811061036d5761036c6104f0565b5b60200260200101819052505f604051806040016040528060018152602001600281525090505f805f73__BulletproofsVerifier__________________63cc0afa1a8a8a8a8a8a8a6040518763ffffffff1660e01b81526004016103d6969594939291906106ee565b60a060405180830381865af41580156103f1573d5f803e3d5ffd5b505050506040513d601f19601f82011682018060405250810190610415919061084c565b9250925092507f48950129900df26c2140187532df49c8af343c3daf74f1e99e562e1b2be07adc835f01518460200151845f01518560200151856040516104609594939291906108ab565b60405180910390a16001995050505050505050505090565b60405180604001604052805f81526020015f81525090565b5f8115159050919050565b6104a481610490565b82525050565b5f6020820190506104bd5f83018461049b565b92915050565b7f4e487b71000000000000000000000000000000000000000000000000000000005f52604160045260245ffd5b7f4e487b71000000000000000000000000000000000000000000000000000000005f52603260045260245ffd5b5f819050919050565b61052f8161051d565b82525050565b5f81519050919050565b5f82825260208201905092915050565b5f819050602082019050919050565b6105678161051d565b82525050565b5f610578838361055e565b60208301905092915050565b5f602082019050919050565b5f61059a82610535565b6105a4818561053f565b93506105af8361054f565b805f5b838110156105df5781516105c6888261056d565b97506105d183610584565b9250506001810190506105b2565b5085935050505092915050565b5f81519050919050565b5f82825260208201905092915050565b5f819050602082019050919050565b604082015f8201516106295f85018261055e565b50602082015161063c602085018261055e565b50505050565b5f61064d8383610615565b60408301905092915050565b5f602082019050919050565b5f61066f826105ec565b61067981856105f6565b935061068483610606565b805f5b838110156106b457815161069b8882610642565b97506106a683610659565b925050600181019050610687565b5085935050505092915050565b604082015f8201516106d55f85018261055e565b5060208201516106e8602085018261055e565b50505050565b5f60e0820190506107015f830189610526565b81810360208301526107138188610590565b905081810360408301526107278187610665565b9050818103606083015261073b8186610665565b9050818103608083015261074f8185610665565b905061075e60a08301846106c1565b979650505050505050565b5f604051905090565b5f80fd5b5f80fd5b5f601f19601f8301169050919050565b6107938261077a565b810181811067ffffffffffffffff821117156107b2576107b16104c3565b5b80604052505050565b5f6107c4610769565b90506107d0828261078a565b919050565b6107de8161051d565b81146107e8575f80fd5b50565b5f815190506107f9816107d5565b92915050565b5f6040828403121561081457610813610776565b5b61081e60406107bb565b90505f61082d848285016107eb565b5f830152506020610840848285016107eb565b60208301525092915050565b5f805f60a0848603121561086357610862610772565b5b5f610870868287016107ff565b9350506040610881868287016107ff565b9250506080610892868287016107eb565b9150509250925092565b6108a58161051d565b82525050565b5f60a0820190506108be5f83018861089c565b6108cb602083018761089c565b6108d8604083018661089c565b6108e5606083018561089c565b6108f2608083018461089c565b969550505050505056fea2646970667358221220d5d4fc616a8993a50ecc886d1edba14881554dd78cdfa0275bacb9b396880a2464736f6c63430008150033",
  "immutableReferences": {},
  "source": "// SPDX-License-Identifier: GPL-3.0\npragma solidity >=0.4.16 <0.9.0;\n\nimport \"../src/bn254/BN254.sol\";\nimport \"../src/bn254/BN256G2.sol\";\nimport \"../src/bn254/Fields.sol\";\nimport \"../src/Utils.sol\";\nimport \"../src/nizk/BulletproofsVerifier.sol\";\n\ncontract BulletproofsContract {\n\n    event ProofVerified(uint256 G_hat_x, uint256 G_hat_y, uint256 Gamma_hat_x, uint256 Gamma_hat_y, uint256 a_hat);\n\n    function verifyProof() public returns (bool) {\n        uint256 n = 2;\n        uint256[] memory a = new uint256[](2);\n        a[0] = 15416814217601598809097438307159678280910647601202033136697015301739005538422;\n        a[1] = 15416814217601598809097438307159678280910647601202033136697015301739005538422;\n        BN254.G1Point[] memory L_vec = new BN254.G1Point[](1);\n        L_vec[0] = BN254.G1Point(15709189654499547992253128989596772418908135586083873956644761776195579465707, 9378588439586703892386735522965228813309566421716910557705682863885074946828);\n        BN254.G1Point[] memory R_vec = new BN254.G1Point[](1);\n        R_vec[0] = BN254.G1Point(7935939072908026097295476399345016765187006381900055898480031549945872409687, 6677402905646868853420619353930623775394799189538162883048922076126975254240);\n        BN254.G1Point[] memory G = new BN254.G1Point[](2);\n        G[0] = BN254.G1Point(1,2);\n        G[1] = BN254.G1Point(1,2);\n        BN254.G1Point memory Gamma = BN254.G1Point(1,2);\n        (BN254.G1Point memory G_hat, BN254.G1Point memory Gamma_hat, uint256 a_hat) = BulletproofsVerifier.verify(n, a, L_vec, R_vec, G, Gamma);\n        emit ProofVerified(G_hat.x, G_hat.y, Gamma_hat.x, Gamma_hat.y, a_hat);\n        return true;\n    }\n}",
  "sourcePath": "/Users/yuvalmedina/git_dirs/nexus-zkvm/spartan/contracts/BulletproofsContract.sol",
  "compiler": {
    "name": "solc",
    "version": "0.8.21+commit.d9974bed.Emscripten.clang"
  },
  "schemaVersion": "3.4.16",
  "updatedAt": "2024-05-14T17:31:46.323Z",
  "networkType": "ethereum",
  "devdoc": {
    "kind": "dev",
    "methods": {},
    "version": 1
  },
  "userdoc": {
    "kind": "user",
    "methods": {},
    "version": 1
  }
}