{
  "contractName": "BulletproofsVerifier",
  "abi": [
    {
      "inputs": [
        {
          "internalType": "uint256",
          "name": "n",
          "type": "uint256"
        },
        {
          "internalType": "uint256[]",
          "name": "a",
          "type": "uint256[]"
        },
        {
          "components": [
            {
              "internalType": "uint256",
              "name": "x",
              "type": "uint256"
            },
            {
              "internalType": "uint256",
              "name": "y",
              "type": "uint256"
            }
          ],
          "internalType": "struct BN254.G1Point[]",
          "name": "L_vec",
          "type": "tuple[]"
        },
        {
          "components": [
            {
              "internalType": "uint256",
              "name": "x",
              "type": "uint256"
            },
            {
              "internalType": "uint256",
              "name": "y",
              "type": "uint256"
            }
          ],
          "internalType": "struct BN254.G1Point[]",
          "name": "R_vec",
          "type": "tuple[]"
        },
        {
          "components": [
            {
              "internalType": "uint256",
              "name": "x",
              "type": "uint256"
            },
            {
              "internalType": "uint256",
              "name": "y",
              "type": "uint256"
            }
          ],
          "internalType": "struct BN254.G1Point[]",
          "name": "G",
          "type": "tuple[]"
        },
        {
          "components": [
            {
              "internalType": "uint256",
              "name": "x",
              "type": "uint256"
            },
            {
              "internalType": "uint256",
              "name": "y",
              "type": "uint256"
            }
          ],
          "internalType": "struct BN254.G1Point",
          "name": "Gamma",
          "type": "tuple"
        }
      ],
      "name": "verify",
      "outputs": [
        {
          "components": [
            {
              "internalType": "uint256",
              "name": "x",
              "type": "uint256"
            },
            {
              "internalType": "uint256",
              "name": "y",
              "type": "uint256"
            }
          ],
          "internalType": "struct BN254.G1Point",
          "name": "G_hat",
          "type": "tuple"
        },
        {
          "components": [
            {
              "internalType": "uint256",
              "name": "x",
              "type": "uint256"
            },
            {
              "internalType": "uint256",
              "name": "y",
              "type": "uint256"
            }
          ],
          "internalType": "struct BN254.G1Point",
          "name": "Gamma_hat",
          "type": "tuple"
        },
        {
          "internalType": "uint256",
          "name": "a_hat",
          "type": "uint256"
        }
      ],
      "stateMutability": "view",
      "type": "function"
    }
  ],
  "bytecode": "0x6113fe61004e600b8282823980515f1a607314610042577f4e487b71000000000000000000000000000000000000000000000000000000005f525f60045260245ffd5b305f52607381538281f3fe7300000000000000000000000000000000000000003014608060405260043610610034575f3560e01c8063cc0afa1a14610038575b5f80fd5b610052600480360381019061004d9190610ef0565b61006a565b60405161006193929190611034565b60405180910390f35b610072610bef565b61007a610bef565b5f806100858a6100eb565b90505f805f6100948d856101ac565b9250925092506100a48982610446565b96506100b08c82610544565b94505f6100be8c8c8b6105cd565b90505f6100cb858561072d565b90506100d78282610446565b975050505050505096509650969350505050565b60605f610fb190508267ffffffffffffffff81111561010d5761010c610ca3565b5b60405190808252806020026020018201604052801561013b5781602001602082028036833780820191505090505b5091505f5b838110156101a557818160405160200161015b929190611089565b604051602081830303815290604052805190602001205f1c838281518110610186576101856110b4565b5b602002602001018181525050808061019d9061110e565b915050610140565b5050919050565b6060806060835167ffffffffffffffff8111156101cc576101cb610ca3565b5b6040519080825280602002602001820160405280156101fa5781602001602082028036833780820191505090505b509250835167ffffffffffffffff81111561021857610217610ca3565b5b6040519080825280602002602001820160405280156102465781602001602082028036833780820191505090505b509150835167ffffffffffffffff81111561026457610263610ca3565b5b6040519080825280602002602001820160405280156102925781602001602082028036833780820191505090505b5090505f6102a06001610885565b90505f5b8551811015610350575f6102d18783815181106102c4576102c36110b4565b5b6020026020010151610885565b90505f6102dd826108b9565b90506102e8826108ca565b8784815181106102fb576102fa6110b4565b5b602002602001018181525050610310816108ca565b868481518110610323576103226110b4565b5b60200260200101818152505061033984826108dc565b9350505080806103489061110e565b9150506102a4565b5080825f81518110610365576103646110b4565b5b6020026020010181815250505f600190505b855181101561043d575f61038a82610909565b90505f816001901b90505f878360018c6103a49190611155565b6103ae9190611155565b815181106103bf576103be6110b4565b5b602002602001015190506104086103fa8784876103dc9190611155565b815181106103ed576103ec6110b4565b5b6020026020010151610885565b61040383610885565b6108dc565b86858151811061041b5761041a6110b4565b5b60200260200101818152505050505080806104359061110e565b915050610377565b50509250925092565b61044e610bef565b8251825114610492576040517f08c379a0000000000000000000000000000000000000000000000000000000008152600401610489906111e2565b60405180910390fd5b6104d0835f815181106104a8576104a76110b4565b5b6020026020010151835f815181106104c3576104c26110b4565b5b6020026020010151610946565b90505f600190505b825181101561053d57610528826105238684815181106104fb576104fa6110b4565b5b6020026020010151868581518110610516576105156110b4565b5b6020026020010151610946565b610a1c565b915080806105359061110e565b9150506104d8565b5092915050565b5f61054d610b17565b90505f5b83518110156105c6576105b1826105ac610584878581518110610577576105766110b4565b5b6020026020010151610885565b6105a787868151811061059a576105996110b4565b5b6020026020010151610885565b6108dc565b610b1b565b915080806105be9061110e565b915050610551565b5092915050565b60606001835185516105df9190611200565b6105e99190611200565b67ffffffffffffffff81111561060257610601610ca3565b5b60405190808252806020026020018201604052801561063b57816020015b610628610bef565b8152602001906001900390816106205790505b5090505f5b84518110156106955784818151811061065c5761065b6110b4565b5b6020026020010151828281518110610677576106766110b4565b5b6020026020010181905250808061068d9061110e565b915050610640565b505f5b83518110156106f9578381815181106106b4576106b36110b4565b5b6020026020010151828287516106ca9190611200565b815181106106db576106da6110b4565b5b602002602001018190525080806106f19061110e565b915050610698565b5081818451865161070a9190611200565b8151811061071b5761071a6110b4565b5b60200260200101819052509392505050565b606060018251845161073f9190611200565b6107499190611200565b67ffffffffffffffff81111561076257610761610ca3565b5b6040519080825280602002602001820160405280156107905781602001602082028036833780820191505090505b5090505f5b83518110156107eb578381815181106107b1576107b06110b4565b5b60200260200101518282815181106107cc576107cb6110b4565b5b60200260200101818152505080806107e39061110e565b915050610795565b505f5b82518110156108505782818151811061080a576108096110b4565b5b6020026020010151828286516108209190611200565b81518110610831576108306110b4565b5b60200260200101818152505080806108489061110e565b9150506107ee565b50600181835185516108629190611200565b81518110610873576108726110b4565b5b60200260200101818152505092915050565b5f7f30644e72e131a029b85045b68181585d2833e84879b9709143e1f593f0000001826108b29190611260565b9050919050565b5f6108c382610b48565b9050919050565b5f6108d582836108dc565b9050919050565b5f7f30644e72e131a029b85045b68181585d2833e84879b9709143e1f593f0000001828409905092915050565b5f805f90505b5f8311156109315780806109229061110e565b915050600183901c925061090f565b60018161093e9190611155565b915050919050565b61094e610bef565b610956610c07565b835f0151815f6003811061096d5761096c6110b4565b5b60200201818152505083602001518160016003811061098f5761098e6110b4565b5b60200201818152505082816002600381106109ad576109ac6110b4565b5b6020020181815250505f60608360808460076107d05a03fa9050805f81036109d3575f80fd5b5080610a14576040517f08c379a0000000000000000000000000000000000000000000000000000000008152600401610a0b906112da565b60405180910390fd5b505092915050565b610a24610bef565b610a2c610c29565b835f0151815f60048110610a4357610a426110b4565b5b602002018181525050836020015181600160048110610a6557610a646110b4565b5b602002018181525050825f015181600260048110610a8657610a856110b4565b5b602002018181525050826020015181600360048110610aa857610aa76110b4565b5b6020020181815250505f60608360c08460066107d05a03fa9050805f8103610ace575f80fd5b5080610b0f576040517f08c379a0000000000000000000000000000000000000000000000000000000008152600401610b0690611342565b60405180910390fd5b505092915050565b5f90565b5f7f30644e72e131a029b85045b68181585d2833e84879b9709143e1f593f0000001828408905092915050565b5f805f7f30644e72e131a029b85045b68181585d2833e84879b9709143e1f593f0000001905060405160208152602080820152602060408201528460608201526002820360808201528160a082015260205f60c08360055afa92505f5193505081610be8576040517f08c379a0000000000000000000000000000000000000000000000000000000008152600401610bdf906113aa565b60405180910390fd5b5050919050565b60405180604001604052805f81526020015f81525090565b6040518060600160405280600390602082028036833780820191505090505090565b6040518060800160405280600490602082028036833780820191505090505090565b5f604051905090565b5f80fd5b5f80fd5b5f819050919050565b610c6e81610c5c565b8114610c78575f80fd5b50565b5f81359050610c8981610c65565b92915050565b5f80fd5b5f601f19601f8301169050919050565b7f4e487b71000000000000000000000000000000000000000000000000000000005f52604160045260245ffd5b610cd982610c93565b810181811067ffffffffffffffff82111715610cf857610cf7610ca3565b5b80604052505050565b5f610d0a610c4b565b9050610d168282610cd0565b919050565b5f67ffffffffffffffff821115610d3557610d34610ca3565b5b602082029050602081019050919050565b5f80fd5b5f610d5c610d5784610d1b565b610d01565b90508083825260208201905060208402830185811115610d7f57610d7e610d46565b5b835b81811015610da85780610d948882610c7b565b845260208401935050602081019050610d81565b5050509392505050565b5f82601f830112610dc657610dc5610c8f565b5b8135610dd6848260208601610d4a565b91505092915050565b5f67ffffffffffffffff821115610df957610df8610ca3565b5b602082029050602081019050919050565b5f80fd5b5f60408284031215610e2357610e22610e0a565b5b610e2d6040610d01565b90505f610e3c84828501610c7b565b5f830152506020610e4f84828501610c7b565b60208301525092915050565b5f610e6d610e6884610ddf565b610d01565b90508083825260208201905060408402830185811115610e9057610e8f610d46565b5b835b81811015610eb95780610ea58882610e0e565b845260208401935050604081019050610e92565b5050509392505050565b5f82601f830112610ed757610ed6610c8f565b5b8135610ee7848260208601610e5b565b91505092915050565b5f805f805f8060e08789031215610f0a57610f09610c54565b5b5f610f1789828a01610c7b565b965050602087013567ffffffffffffffff811115610f3857610f37610c58565b5b610f4489828a01610db2565b955050604087013567ffffffffffffffff811115610f6557610f64610c58565b5b610f7189828a01610ec3565b945050606087013567ffffffffffffffff811115610f9257610f91610c58565b5b610f9e89828a01610ec3565b935050608087013567ffffffffffffffff811115610fbf57610fbe610c58565b5b610fcb89828a01610ec3565b92505060a0610fdc89828a01610e0e565b9150509295509295509295565b610ff281610c5c565b82525050565b604082015f82015161100c5f850182610fe9565b50602082015161101f6020850182610fe9565b50505050565b61102e81610c5c565b82525050565b5f60a0820190506110475f830186610ff8565b6110546040830185610ff8565b6110616080830184611025565b949350505050565b5f819050919050565b61108361107e82610c5c565b611069565b82525050565b5f6110948285611072565b6020820191506110a48284611072565b6020820191508190509392505050565b7f4e487b71000000000000000000000000000000000000000000000000000000005f52603260045260245ffd5b7f4e487b71000000000000000000000000000000000000000000000000000000005f52601160045260245ffd5b5f61111882610c5c565b91507fffffffffffffffffffffffffffffffffffffffffffffffffffffffffffffffff820361114a576111496110e1565b5b600182019050919050565b5f61115f82610c5c565b915061116a83610c5c565b9250828203905081811115611182576111816110e1565b5b92915050565b5f82825260208201905092915050565b7f4d534d206572726f723a206c656e67746820646f6573206e6f74206d617463685f82015250565b5f6111cc602083611188565b91506111d782611198565b602082019050919050565b5f6020820190508181035f8301526111f9816111c0565b9050919050565b5f61120a82610c5c565b915061121583610c5c565b925082820190508082111561122d5761122c6110e1565b5b92915050565b7f4e487b71000000000000000000000000000000000000000000000000000000005f52601260045260245ffd5b5f61126a82610c5c565b915061127583610c5c565b92508261128557611284611233565b5b828206905092915050565b7f426e3235343a207363616c6172206d756c206661696c656421000000000000005f82015250565b5f6112c4601983611188565b91506112cf82611290565b602082019050919050565b5f6020820190508181035f8301526112f1816112b8565b9050919050565b7f426e3235343a2067726f7570206164646974696f6e206661696c6564210000005f82015250565b5f61132c601d83611188565b9150611337826112f8565b602082019050919050565b5f6020820190508181035f83015261135981611320565b9050919050565b7f426e3235343a20706f7720707265636f6d70696c65206661696c6564210000005f82015250565b5f611394601d83611188565b915061139f82611360565b602082019050919050565b5f6020820190508181035f8301526113c181611388565b905091905056fea2646970667358221220287d84b7a8871c56ae75a462219ed71c3757799683fbf9210c2201d6fc79f2e364736f6c63430008150033",
  "immutableReferences": {},
  "source": "// SPDX-License-Identifier: GPL-3.0\npragma solidity >=0.4.16 <0.9.0;\n\nimport \"../bn254/BN254.sol\";\nimport \"../bn254/BN256G2.sol\";\nimport \"../bn254/Fields.sol\";\nimport \"../Utils.sol\";\n\nusing {BN254.add, BN254.scale_scalar, BN254.neg} for BN254.G1Point;\nusing {Scalar.neg, Scalar.add, Scalar.sub, Scalar.mul, Scalar.inv, Scalar.double, Scalar.pow, Scalar.square} for Scalar.FE;\n\n// Author: @yuval-medina\nlibrary BulletproofsVerifier {\n\n    function innerProd(\n        uint256[] memory right, uint256[] memory left\n    ) internal pure returns (Scalar.FE result) {\n        result = Scalar.zero();\n        for (uint i = 0; i < right.length; i++) {\n            result = Scalar.add(result, Scalar.mul(Scalar.from(right[i]), Scalar.from(left[i])));\n        }\n    }\n\n    function mostSignificantBit(uint256 x) private pure returns (uint256) {\n        uint256 res = 0;\n        while (x > 0) {\n            res++;\n            x >>= 1;\n        }\n        return res - 1;\n    }\n\n    function verificationScalars(\n        uint256 n,\n        uint256[] memory challenges\n    ) internal view returns (uint256[] memory challenges_squared, uint256[] memory challenges_inv_squared, uint256[] memory s) {\n        challenges_squared = new uint256[](challenges.length);\n        challenges_inv_squared = new uint256[](challenges.length);\n        s = new uint256[](challenges.length);\n\n        Scalar.FE all_inv = Scalar.from(1);\n        for (uint i = 0; i < challenges.length; i++) {\n            Scalar.FE challenge = Scalar.from(challenges[i]);\n            Scalar.FE challenge_inv = Scalar.inv(challenge);\n            challenges_squared[i] = Scalar.FE.unwrap(Scalar.square(challenge));\n            challenges_inv_squared[i] = Scalar.FE.unwrap(Scalar.square(challenge_inv));\n            all_inv = Scalar.mul(all_inv, challenge_inv);\n        }\n\n        s[0] = Scalar.FE.unwrap(all_inv);\n        for (uint i = 1; i < challenges.length; i++) {\n            uint256 lg_i = mostSignificantBit(i);\n            uint256 k = 1 << lg_i;\n            uint256 u_lg_i_sq = challenges_squared[n - 1 - lg_i];\n            // The challenges are stored in \"creation order\" as [u_k,...,u_1],\n            // so u_{lg(i)+1} = is indexed by (lg_n-1) - lg_i\n            s[i] = Scalar.FE.unwrap(Scalar.mul(Scalar.from(s[i-k]), Scalar.from(u_lg_i_sq)));\n        }\n    }\n\n    function computeChallenges(uint256 n) internal pure returns (uint256[] memory challenges) {\n        uint256 seed = 4017;\n        challenges = new uint256[](n);\n        for (uint256 i = 0; i < n; i++) {\n            // Simplified challenge computation\n            challenges[i] = uint256(keccak256(abi.encodePacked(seed, i)));\n        }\n    }\n\n    function fillBases(BN254.G1Point[] memory L_vec, BN254.G1Point[] memory R_vec, BN254.G1Point memory Gamma)\n        internal pure returns (BN254.G1Point[] memory bases) {\n        bases = new BN254.G1Point[](L_vec.length + R_vec.length + 1);\n        for (uint256 i = 0; i < L_vec.length; i++) {\n            bases[i] = L_vec[i];\n        }\n        for (uint256 i = 0; i < R_vec.length; i++) {\n            bases[L_vec.length + i] = R_vec[i];\n        }\n        bases[L_vec.length + R_vec.length] = Gamma;\n    }\n\n    function fillScalars(uint256[] memory u_sq, uint256[] memory u_inv_sq) internal pure returns (uint256[] memory scalars) {\n        scalars = new uint256[](u_sq.length + u_inv_sq.length + 1);\n        for (uint256 i = 0; i < u_sq.length; i++) {\n            scalars[i] = u_sq[i];\n        }\n        for (uint256 i = 0; i < u_inv_sq.length; i++) {\n            scalars[u_sq.length + i] = u_inv_sq[i];\n        }\n        scalars[u_sq.length + u_inv_sq.length] = 1;\n    }\n\n    function verify(\n        uint256 n, uint256[] memory a, BN254.G1Point[] memory L_vec, BN254.G1Point[] memory R_vec, BN254.G1Point[] memory G, BN254.G1Point memory Gamma\n    ) public view returns (BN254.G1Point memory G_hat, BN254.G1Point memory Gamma_hat, uint256 a_hat) {\n        uint256[] memory challenges = computeChallenges(n);\n        (uint256[] memory u_sq, uint256[] memory u_inv_sq, uint256[] memory s) = verificationScalars(n, challenges);\n\n        G_hat = BN254.multiScalarMul(G, s);\n        a_hat = Scalar.FE.unwrap(innerProd(a, s));\n\n        BN254.G1Point[] memory bases = fillBases(L_vec, R_vec, Gamma);\n        uint256[] memory scalars = fillScalars(u_sq, u_inv_sq);\n\n        // Compute Gamma_hat using msm\n        Gamma_hat = BN254.multiScalarMul(bases, scalars);\n\n        return (G_hat, Gamma_hat, a_hat);\n    }\n}",
  "sourcePath": "/Users/yuvalmedina/git_dirs/nexus-zkvm/spartan/src/nizk/BulletproofsVerifier.sol",
  "compiler": {
    "name": "solc",
    "version": "0.8.21+commit.d9974bed.Emscripten.clang"
  },
  "schemaVersion": "3.4.16",
  "updatedAt": "2024-05-14T19:26:29.814Z",
  "devdoc": {
    "kind": "dev",
    "methods": {},
    "version": 1
  },
  "userdoc": {
    "kind": "user",
    "methods": {},
    "version": 1
  }
}